:100000000A128A11D52F00308A000408840A820758
:1000100000343134323433344134343435343634CA
:10002000423437343834393443342A343034233486
:02003000443456
:100D62000034003400340034FF3464008001840A0B
:100D72000406031900340406B72E831603138713DF
:100D82008312031387134130F100EE30F000F00BB1
:100D9200C82EF10BC82E00008312031387171330DD
:100DA200F000F00BD22ED52E8316031387170800FE
:100DB200831203138F018E011014871BE12EE22E82
:100DC200E82E64300E02031CE72EE82EDE2E64307D
:100DD2000E02031CED2EEE2EF02E0310FD2E8F01BF
:100DE2008E01871FF52EF62EFC2E64300E02031C98
:100DF200FB2EFC2EF22E0314080070308316031310
:100E02008F00831603178901103083120313900099
:100E12008F018E0183160313860183120313860149
:100E22000A128A1171270A128A11FC007C08FD003D
:100E32007D088400000803191F2F202F112F023074
:100E4200831203138600112F0A128A110028F3005D
:100E52007308840083138001F201831203138F014C
:100E62008E013B2F65300E02031C382F392F3B2F8A
:100E72000314702F871F3E2F3F2F332F8F018E01B8
:100E8200492F65300E02031C472F482F492F392F57
:100E9200871B4C2F4D2F422F33300E02031C522F33
:100EA200532F652F0130F0007208073C013E5B2F83
:100EB2000310F00DFF3E031D592F7008F100730857
:100EC20084007108831380040130F0007008F20777
:100ED20008307202031C6E2F6F2F2E2F0310080092
:100EE200773084008312031335088000840A3608A1
:100EF2008000840A37088000840A38088000840A47
:100F0200390880000A128A11BE260A128A110A12B0
:100F12008A11D9260A128A11031C902F912FC32FEE
:100F220032300A128A1128270A128A110030031855
:100F32000130F70031300A128A1128270A128A1169
:100F4200003003180130F80034300A128A112827C1
:100F52000A128A11003003180130F90033300A12E4
:100F62008A1128270A128A11003003180130FA0068
:100F720030300A128A1128270A128A110030031807
:100F82000130FB008312031310100B30F6002630E1
:100F9200F5005D30F400F40BCC2FF50BCC2FF60BE3
:100FA200CC2FD32F773008000A128A11B1260A12E9
:100FB2008A11B5000A128A11B2260A128A11B600E3
:100FC2000A128A11B3260A128A11B7000A128A116A
:100FD200B4260A128A11B8000A128A11B5260A1218
:100FE2008A11B90083132030840035300A128A1125
:0E0FF200B6260A128A1183010A128A11FE2EF7
:08400000FF3FFF3FFF3FFF3FC0
:04400E00D22FFF3F6F
:00000001FF
